:100000000C9463000C948B000C948B000C940D05E5
:100010000C940D050C940D050C948B000C948B0026
:100020000C948B000C948B000C948B000C948B0024
:100030000C948B000C948B000C948B000C948B0014
:100040000C94C3040C948B000C9491040C946B04DA
:100050000C948B000C948B000C948B000C948B00F4
:100060000C948B000C948B000000000024002700EF
:100070002A0000000008000201000003040700003D
:1000800000000000000000000000230026002900FE
:1000900000000000250028002B00040404040404D0
:1000A0000404020202020202030303030303010227
:1000B00004081020408001020408102001020408F6
:1000C0001020CA05150811241FBECFEFD8E0DEBFEF
:1000D000CDBF11E0A0E0B1E0EEE4F1E102C0059097
:1000E0000D92AE3FB107D9F723E0AEEFB1E001C00A
:1000F0001D92A632B207E1F710E0C2E6D0E004C0DC
:100100002197FE010E949408C136D107C9F70E94C9
:1001100002060C949A080C940000AF92BF92CF9202
:10012000DF92EF92FF920F931F93CF93DF936C01B7
:100130007B018B01040F151FEB015E01AE18BF0898
:10014000C017D10759F06991D601ED91FC9101904A
:10015000F081E02DC6010995892B79F7C501DF9162
:10016000CF911F910F91FF90EF90DF90CF90BF90B4
:10017000AF900895FC01538D448D252F30E0842FDE
:1001800090E0821B930B541710F0CF9608950197BF
:100190000895FC01918D828D981761F0A28DAE0FAC
:1001A000BF2FB11D5D968C91928D9F5F9F73928F33
:1001B00090E008958FEF9FEF0895FC01918D828D5F
:1001C000981731F0828DE80FF11D858D90E008952C
:1001D0008FEF9FEF0895FC01918D228D892F90E084
:1001E000805C9F4F821B91098F73992708958BE440
:1001F00092E00E94EB0021E0892B09F420E0822F9D
:10020000089580E090E0892B29F00E94F700811189
:100210000C9400000895FC01A48DA80FB92FB11D06
:10022000A35ABF4F2C91848D90E001968F7399272C
:10023000848FA689B7892C93A089B1898C9183700A
:1002400080648C93938D848D981306C00288F38903
:10025000E02D80818F7D80830895EF92FF920F9330
:100260001F93CF93DF93EC0181E0888F9B8D8C8D62
:1002700098131AC0E889F989808185FF15C09FB756
:10028000F894EE89FF896083E889F9898081837019
:10029000806480839FBF81E090E0DF91CF911F91C8
:1002A0000F91FF90EF900895F62E0B8D10E00F5FE9
:1002B0001F4F0F731127E02E8C8D8E110CC00FB6BF
:1002C00007FCFACFE889F989808185FFF5CFCE0157
:1002D0000E940B01F1CFEB8DEC0FFD2FF11DE35AC6
:1002E000FF4FF0829FB7F8940B8FEA89FB898081DA
:1002F0008062CFCFCF93DF93EC01888D8823B9F054
:10030000AA89BB89E889F9898C9185FD03C0808120
:1003100086FD0DC00FB607FCF7CF8C9185FFF2CF9D
:10032000808185FFEDCFCE010E940B01E9CFDF91E7
:10033000CF910895833081F028F4813099F0823094
:10034000A9F008958730A9F08830C9F08430B1F45D
:10035000809180008F7D03C0809180008F77809393
:100360008000089584B58F7784BD089584B58F7D0E
:10037000FBCF8091B0008F778093B000089580917B
:10038000B0008F7DF9CF1F93CF93DF93282F30E0FC
:10039000F901EE58FF4F8491F901E255FF4FD491D6
:1003A000F901E656FF4FC491CC23A9F0162F811115
:1003B0000E949A01EC2FF0E0EE0FFF1FE057FF4F75
:1003C000A591B4918FB7F894EC91111108C0D09514
:1003D000DE23DC938FBFDF91CF911F910895DE2B39
:1003E000F8CFCF93DF9390E0FC01E255FF4F2491CB
:1003F00086569F4FFC0184918823D1F090E0880FAE
:10040000991FFC01E859FF4FA591B491FC01E057F9
:10041000FF4FC591D49161110EC09FB7F8948C9194
:10042000E22FE0958E238C932881E223E8839FBFFF
:10043000DF91CF9108958FB7F894EC91E22BEC9374
:100440008FBFF6CF0F931F93CF93DF93EC01162F3F
:10045000042F1B821A8288EE93E0A0E0B0E08C8328
:100460009D83AE83BF8388E091E0998388831F8A50
:100470001E8A198E188E1B8E1A8E1D8E1C8E6E8DE6
:100480006E7F6D7F6E8F6695617081E06827842F27
:100490000E94C30161E0802F0E94F101802F90E053
:1004A000FC01E255FF4FE491E88BFC01E656FF4F5B
:1004B000E491F0E0EE0FFF1FE057FF4F859194911C
:1004C0009A8B898B60E0812F0E94F1018E8D81FDD6
:1004D00004C061E0812F0E94C3011C87812F90E03E
:1004E000FC01E255FF4FE491ED87FC01E656FF4F1A
:1004F000E491F0E0EE0FFF1FEA57FF4F85919491D2
:100500009F878E87DF91CF911F910F9108953FB7FD
:10051000F8948091470290914802A0914902B091CD
:100520004A0226B5A89B05C02F3F19F00196A11DD0
:10053000B11D3FBFBA2FA92F982F8827BC01CD012D
:10054000620F711D811D911D42E0660F771F881F8C
:10055000991F4A95D1F708958F929F92AF92BF92BB
:10056000CF92DF92EF92FF924B015C010E948702D3
:100570006B017C010E9487026C197D098E099F091D
:10058000683E734081059105A8F321E0821A910825
:10059000A108B10888EEC80E83E0D81EE11CF11C4A
:1005A00081149104A104B10429F7FF90EF90DF902A
:1005B000CF90BF90AF909F908F9008952091400270
:1005C000309141022817390771F490913F028091D0
:1005D0003E02981741F0E0913F02F0E0E250FE4FFA
:1005E000808190E008958FEF9FEF08950895EF9236
:1005F000FF920F931F93CF93DF93DC015C96ED90F6
:10060000FC905D97E114F10479F481E090E0139699
:100610009C938E93129790E080E0DF91CF911F9191
:100620000F91FF90EF9008955196ED91FC915297A4
:1006300050968C915097982F90950FB75E962C916D
:100640005E97122F127021FD6095F894208111237E
:1006500019F1282B2083E7012197F1F728E0462F95
:1006600050E0308160FF1AC0382B3083E7012197BA
:10067000F1F7BA0175956795215089F7112381F03B
:100680008081892380830FBF5C968D919C91019717
:10069000F1F781E090E0C1CF2923DCCF3923E5CF0A
:1006A0009081892BEFCF2091400230914102281791
:1006B000390771F480913E0220913F0290E0805C06
:1006C0009F4F821B910960E470E00E942B080895FF
:1006D00090E080E008952091400230914102281777
:1006E0003907B9F490913F0280913E02981789F042
:1006F000E0913F02F0E0E250FE4F808120913F0206
:1007000030E02F5F3F4F2F73332720933F0290E05D
:1007100008958FEF9FEF0895E0914002F09141021C
:10072000E817F90769F4A389B4899C9185898095B4
:1007300089238C93109241021092400281E0089527
:1007400080E00895CF93DF93EC019A01AB011B8EFB
:100750001A8E198E188E1F8A1E8A60E079E08DE34A
:1007600090E00E946108C90103979D8F8C8F6C8572
:10077000663108F047C0C9019695879543979F8BCE
:100780008E8BC9010597998F888FC901880F991F92
:10079000280F391F36952795369527952C50310906
:1007A0003B8F2A8F9091680084E0683048F021E008
:1007B0006E3008F420E081E001C0880F2A95EAF746
:1007C000892B809368009C852DE630E0983050F0AE
:1007D0002BE630E09E3030F02CE630E0963110F021
:1007E00030E020E03C8B2B8B292F30E0983068F5EF
:1007F00081E001C0880F9A95EAF78D8B8C8D9D8DD5
:100800000197F1F78A8D9B8D892BE1F08091400251
:1008100090914102C817D907A9F0009711F00E94E2
:100820008C038E8D8E7F8E8F10923E0210923F022F
:10083000D0934102C0934002EB89FC8980819D895D
:10084000892B8083DF91CF9108959E3040F428500A
:10085000310981E001C0880F2A95EAF7CECF2E50EA
:100860003109F7CF90E080E00895FB01019000206E
:10087000E9F73197AF01461B570BDC01ED91FC9175
:100880000280F381E02D099468E271E00C94350454
:10089000CF93DF936AE187E093E00E94F702EC01D7
:1008A00087E093E00E9444048C0F9D1FDF91CF915D
:1008B00008950F931F93CF93DF93EC010E943504AB
:1008C0008C01CE010E944404800F911FDF91CF91D3
:1008D0001F910F9108951F920F920FB60F9211243E
:1008E0002F933F934F935F936F937F938F939F9338
:1008F000AF93BF93EF93FF938BE492E00E940B01C1
:10090000FF91EF91BF91AF919F918F917F916F91E7
:100910005F914F913F912F910F900FBE0F901F90BD
:1009200018951F920F920FB60F9211242F938F9349
:100930009F93EF93FF93E0915B02F0915C028081C3
:10094000E0916102F091620282FD1BC09081809172
:1009500064028F5F8F7320916502821741F0E091EE
:100960006402F0E0E55BFD4F958F80936402FF9198
:10097000EF919F918F912F910F900FBE0F901F902D
:1009800018958081F4CF1F920F920FB60F92112409
:100990002F933F938F939F93AF93BF938091430285
:1009A00090914402A0914502B091460230914202DA
:1009B00023E0230F2D3758F50196A11DB11D20937B
:1009C00042028093430290934402A0934502B09365
:1009D00046028091470290914802A0914902B0914D
:1009E0004A020196A11DB11D8093470290934802CF
:1009F000A0934902B0934A02BF91AF919F918F910A
:100A00003F912F910F900FBE0F901F90189526E8E1
:100A1000230F0296A11DB11DD2CF1F920F920FB6C8
:100A20000F9211242F933F934F935F936F937F9374
:100A30008F939F93AF93BF93EF93FF93E091400207
:100A4000F0914102309749F0A685B7858585968D4E
:100A500091FF14C09C918923A1F4FF91EF91BF9164
:100A6000AF919F918F917F916F915F914F913F9146
:100A70002F910F900FBE0F901F9018959C91892376
:100A800061F7A389B4899C918589809589238C938A
:100A9000868997890197F1F7608D718DA685B78555
:100AA000558538E020E0CB010197F1F7822F90E0E7
:100AB00095958795282F4C91452309F02068315052
:100AC00091F7868D81FD209580913E0290E0019600
:100AD0008F73992730913F02381799F0A0913E0209
:100AE000B0E0A250BE4F2C9380933E02828D938D36
:100AF0000197F1F7A389B4898C919589892B8C93FF
:100B0000ACCF868D8160868FF1CFCF92DF92EF924E
:100B1000FF920F931F93E82FF92F05C00150110981
:100B20002109310961F1908196239417B9F305C029
:100B3000015011092109310911F190819623941373
:100B4000F7CFC12CD12CE12CF12C0AC08FEFC81AA1
:100B5000D80AE80AF80A0C151D052E053F0579F09C
:100B600080818623841791F36C2D7D2D8E2D9F2DF2
:100B70001F910F91FF90EF90DF90CF90089560E06C
:100B800070E080E090E01F910F91FF90EF90DF9078
:100B9000CF900895EBE4F2E01382128288EE93E0A6
:100BA000A0E0B0E084839583A683B7838AE191E0D7
:100BB0009183808385EC90E09587848784EC90E036
:100BC0009787868780EC90E0918B808B81EC90E01A
:100BD000938B828B82EC90E0958B848B86EC90E0FB
:100BE000978B868B118E128E138E148E49E068E0DF
:100BF00087E093E00E9422024BE06AE088EE92E0F8
:100C00000C942202CF93DF93CDB7DEB7A1970FB636
:100C1000F894DEBF0FBECDBF789484B5826084BDEA
:100C200084B5816084BD85B5826085BD85B58160F0
:100C300085BD80916E00816080936E00109281006E
:100C40008091810082608093810080918100816029
:100C500080938100809180008160809380008091EA
:100C6000B10084608093B1008091B0008160809376
:100C7000B00080917A00846080937A0080917A003D
:100C8000826080937A0080917A00816080937A00FC
:100C900080917A00806880937A001092C100E09180
:100CA0005B02F0915C0282E08083E0915702F09158
:100CB000580281E08083E0915902F0915A0280EA63
:100CC000808310926302E0915F02F091600286E0FF
:100CD0008083E0915D02F0915E028081806180837B
:100CE000E0915D02F0915E02808188608083E091F6
:100CF0005D02F0915E02808180688083E0915D02F8
:100D0000F0915E0280818F7D808361E083E00E94AC
:100D1000F10160E082E00E94F10161E087E00E9461
:100D2000F10160E084E00E94F10161E085E00E9451
:100D3000F10140E659E060E070E087E093E00E9456
:100D4000A20340E855E260E070E088EE92E00E9485
:100D5000A2036BE271E08BE492E00E94590464E626
:100D600070E080E090E00E94AC0261E571E08BE40D
:100D700092E00E94590424E9822E912CA12CB12CDE
:100D80003AE0432E512C612C712C22242394312CD7
:100D900060E083E00E94C30183E090E00197F1F7F7
:100DA00061E083E00E94C3018FE090E00197F1F7DA
:100DB00060E083E00E94C301E0EBF0E06491ECE9C5
:100DC000F0E08491E82FF0E0EE0FFF1FEA57FF4FAD
:100DD0008591949100E412E42FE030E0462F0E94C8
:100DE0008505611571058105910529F06F5F7F4FBC
:100DF0008F4F9F4F9F70A50194010E946108690168
:100E00007A0119A28E010F5D1F4FCA01B901A3011A
:100E100092010E943F08605DF80162938F012115E5
:100E200031054105510589F7309729F0BF0188EE5A
:100E300092E00E94350488EE92E00E944404FBE0B8
:100E4000CF16D104E104F1040CF4CAC08091020170
:100E500090910301019709F040C08BE492E00E9459
:100E600044048BE492E00E94440468E571E08BE462
:100E700092E00E94590469E771E087E093E00E94E4
:100E800035048BE492E00E94440464E871E087E05A
:100E900093E00E94590464E871E08BE492E00E94C0
:100EA000590468E571E087E093E00E94590461EA23
:100EB00071E08BE492E00E9459040E94480487E0AC
:100EC00093E00E94440466EC71E08BE492E00E949F
:100ED00059041092030110920201E6E7F0E08491B8
:100EE000E2EBF0E00491EEE9F0E01491112309F453
:100EF0007CC081110E949A01E12FF0E0EE0FFF1FEC
:100F0000EA57FF4FA591B4918C91082309F46DC065
:100F10006CED71E088EE92E00E945904809100012E
:100F200090910101019709F048C061E085E00E94BD
:100F3000C30161E087E00E94C3018BE492E00E945C
:100F400044048BE492E00E9444046EED71E08BE473
:100F500092E00E94590469E771E087E093E00E9403
:100F600035048BE492E00E94440464E871E087E079
:100F700093E00E94590464E871E08BE492E00E94DF
:100F800059046EED71E087E093E00E94590461EA34
:100F900071E08BE492E00E9459040E94480487E0CB
:100FA00093E00E94440466EC71E08BE492E00E94BE
:100FB0005904109201011092000168EC70E080E089
:100FC00090E00E94AC0280E090E0892B09F4E0CE32
:100FD0000E94F700882309F4DBCE0E940000D8CEDF
:100FE000309203012092020178CF6BEF71E088EE1E
:100FF00092E00E9459043092010120920001FBE02E
:10100000CF16D104E104F1044CF061E087E00E94C6
:10101000C30161E085E00E94C301CFCF60E085E0BD
:101020000E94C30160E087E0F6CFCF93DF93C8E072
:10103000D1E0D093E902C093E80288EE92E00E94EA
:101040008C03D0930803C093070387E093E0DF91FC
:10105000CF910C948C0397FB072E16F4009407D0C5
:1010600077FD09D00E94800807FC05D03EF49095DA
:1010700081959F4F0895709561957F4F0895A1E2E6
:101080001A2EAA1BBB1BFD010DC0AA1FBB1FEE1F02
:10109000FF1FA217B307E407F50720F0A21BB30B4D
:1010A000E40BF50B661F771F881F991F1A9469F7C9
:1010B00060957095809590959B01AC01BD01CF0125
:1010C0000895052E97FB1EF400940E94780857FDA2
:1010D00007D00E943F0807FC03D04EF40C94780818
:1010E00050954095309521953F4F4F4F5F4F089554
:1010F00090958095709561957F4F8F4F9F4F089584
:10110000AA1BBB1B51E107C0AA1FBB1FA617B7072D
:1011100010F0A61BB70B881F991F5A95A9F7809549
:101120009095BC01CD010895EE0FFF1F0590F4913D
:10113000E02D099410E0C2E6D0E004C0FE010E9458
:0E11400094082196C336D107C9F7F894FFCF63
:10114E000100010000000000F7028D003204F602DB
:10115E0053036B03DE02000000002D018D00BA0068
:10116E007A01EB00C900DD000D0A00537461727440
:10117E00696E67207468652047534D206D6F6475E6
:10118E006C652E20506C6561736520576169742EF5
:10119E000052656164792100596F75722070726515
:1011AE0063696F7573207468696E67206469737004
:1011BE006C616365642121210041542B434D4746E8
:1011CE003D310D004154202B20434D4753203D20EF
:1011DE00222B3838303137383833333939313722DA
:1011EE000053656E64696E6720616E20534D532007
:1011FE00746F20746865206D6F62696C65206E7502
:10120E006D6265722E00534D532053656E742053DC
:10121E0075636365737366756C6C790031004D6F21
:10122E0074696F6E20697320646574656374656498
:0E123E00206279205049522121210030000009
:00000001FF
